:020000040000fa
:080000000002040000000000f2
:020000040000fa
:100008003a0300003a0300003a0300003a030000f4
:100018003a0300003a0300003a0300003a030000e4
:100028003a0300003a0300003a0300003a030000d4
:100038003a0300003a0300003a0300003a030000c4
:100048003a0300003a0300003a0300003a030000b4
:100058003a0300003a0300003a0300003a030000a4
:100068003a0300003a0300003a0300003a03000094
:100078003a0300003a0300003a0300003a03000084
:100088003a0300003a0300003a0300003a03000074
:100098003a0300003a030000e20200009a0200005e
:1000a8003a0300003a0300003a0300003a03000054
:1000b8003a0300003a0300003a0300003a03000044
:1000c8003a0300003a0300003a0300003a03000034
:1000d8003a0300003a0300003a0300003a03000024
:1000e8003a0300003a0300003a0300003a03000014
:1000f8003a0300003a0300003a0300003a03000004
:100108003a0300003a0300003a0300003a030000f3
:100118003a0300003a0300003a0300003a030000e3
:100128003a0300003a0300003a0300003a030000d3
:100138003a0300003a0300003a0300003a030000c3
:100148003a0300003a0300003a0300003a030000b3
:100158003a0300003a0300003a0300003a030000a3
:100168003a0300003a0300003a0300003a03000093
:100178003a0300003a0300003a0300003a03000083
:100188003a0300003a0300003a0300003a03000073
:100198003a0300003a0300003a0300003a03000063
:1001a8003a0300003a0300003a0300003a03000053
:1001b8003a0300003a0300003a0300003a03000043
:1001c8003a0300003a0300003a0300003a03000033
:1001d8003a0300003a0300003a0300003a03000023
:1001e8003a0300003a0300003a0300003a03000013
:0801f8003a0300003a03000085
:020000040000fa
:100208003a0300003a0300003a0300003a030000f2
:100218003a0300003a0300003a0300003a030000e2
:100228003a0300003a0300003a0300003a030000d2
:100238003a0300003a0300003a0300003a030000c2
:100248003a0300003a0300003a0300003a030000b2
:100258003a0300003a0300003a0300003a030000a2
:100268003a0300003a0300003a0300003a03000092
:100278003a0300003a0300003a0300003a03000082
:100288003a0300003a0300003a0300003a03000072
:100298003a0300003a030000e20200009a0200005c
:1002a8003a0300003a0300003a0300003a03000052
:1002b8003a0300003a0300003a0300003a03000042
:1002c8003a0300003a0300003a0300003a03000032
:1002d8003a0300003a0300003a0300003a03000022
:1002e8003a0300003a0300003a0300003a03000012
:1002f8003a0300003a0300003a0300003a03000002
:100308003a0300003a0300003a0300003a030000f1
:100318003a0300003a0300003a0300003a030000e1
:100328003a0300003a0300003a0300003a030000d1
:100338003a0300003a0300003a0300003a030000c1
:100348003a0300003a0300003a0300003a030000b1
:100358003a0300003a0300003a0300003a030000a1
:100368003a0300003a0300003a0300003a03000091
:100378003a0300003a0300003a0300003a03000081
:100388003a0300003a0300003a0300003a03000071
:100398003a0300003a0300003a0300003a03000061
:1003a8003a0300003a0300003a0300003a03000051
:1003b8003a0300003a0300003a0300003a03000041
:1003c8003a0300003a0300003a0300003a03000031
:1003d8003a0300003a0300003a0300003a03000021
:1003e8003a0300003a0300003a0300003a03000011
:0803f8003a0300003a03000083
:020000040000fa
:100400008f9220000e7f24000e0188000000000063
:10041000000020000000e000020032000001200087
:10042000200288000c000700c055210001002000b8
:1004300011000700000020000000e0000200320070
:10044000000002000000000058160200000000003a
:100450000040da000000fe004440a900a00a20008d
:100460000000e0000300320000002000a00188002e
:100470004440a80000000600910188008000780038
:100480000000eb0015003700e280400032a0b4000d
:100490009101ba00e280400032a0b4009102ba009b
:1004a000e280400032a0b4000002eb00472bde00e7
:1004b000f507b200602ce10004003a000059eb009f
:1004c0008301e900fdff3e00040037006128e100e0
:1004d000010032000082eb00040007001101ba00a5
:1004e0000200e000e8ff3a00000006003159ba00bf
:1004f0008301e9000c0032002159ba008301e900b0
:10050000080032000400e00003003a00e2804000ee
:1005100032a0b400f5ff370011d9ba008301e90019
:10052000faff3a008100e800e180400032a0b40008
:10053000000006003600f800809fbe00829fbe00cb
:10054000849fbe00869fbe000000fa0087e0a900dd
:100550002541800064822000048242001442780019
:10056000e04f52000f003200000000005e00070064
:1005700000427800e04f5200fcff3a002541800025
:100580006482200004824200144278000482fb004e
:100590008502e8002541880004007800b3000700c8
:1005a0000100370097e0a9000080fa004f03be0069
:1005b0004f02be004f01be004f00be003600f900e2
:1005c000004006000000fa000080fa00004006002b
:1005d0000200fa00004f780000000000420007000f
:1005e00000427800e04f5200fcff3a001e02fb0080
:1005f000040078009d0007000080fa00000006005b
:100600000200fa00004f78001e407800f0ff07005b
:100610000080fa00000006000000fa003535800076
:1006200004fc2f0004826200a400b300343588006b
:1006300085368000f40f2c00848262000450200074
:100640000502720084368800330007000000eb00ca
:100650003900070072062000014020000000280039
:100660006e0007000002eb00040078000080fa0032
:10067000000006000040da000000fe000800fa005a
:100680001007980021079800320798000002eb003d
:10069000040f78001e0290000402e900e10f5200ee
:1006a0000d003e0007003700ae0290001e027800e9
:1006b00004824200144278001e0fe80004407800d3
:1006c000cfff07009e0278003e029000848f520008
:1006d000f5ff3900000000003e02900004007800a1
:1006e0000080fa00000006000000fa00951180006a
:1006f000041020000482620004f0a7000402ea0053
:100700000402e9004f22de00044278000440780031
:100710000080fa00000006000000fa0031e2a900a3
:1007200097c0a90097e0a90087c0a90087e0a900a9
:100730000080fa00000006000200fa00000f7800b6
:1007400087c0a90087e0a9001e0278000442780053
:100750006742620067426200674262000482fb00f7
:10076000670262004822dd0096058000f58f2f00a9
:10077000850263000482720094058800040720004b
:100780001e0262004422de000442780067426200da
:100790000482fb00670262004c22dd0096058000a7
:1007a000f5ff28008502630004827200940588002a
:1007b0009e027800688262004322de0004427800d4
:1007c000614262000482fb00610262004e22dd0091
:1007d000b6048000f5ff2b008502630004827200de
:1007e000b4048800040820001e0262004722de00d4
:1007f00004427800614262000482fb004f22dd0067
:10080000b6048000f5ff27008502630004827200b1
:10081000b40488000080fa00000006000800fa0016
:100820001007980021079800320798003e029000b8
:10083000c41188001e029000841188002e029000ce
:100840009411880002003700b4118000044f780032
:100850009411800061026200e00f5200faff3a003a
:1008600087c0a9000080fa00000006000200fa001c
:10087000000f78008411800066026200e60f5200cb
:1008800003003a001e027800a4118800030037001c
:10089000f40f20001e026200a41188000080fa00fc
:1008a00000000600889fbe008a9fbe003004be0084
:1008b0002005be000404440085844c0006054d005c
:1008c00087854d000898be000a90be000440e100f4
:1008d00005c8e10006d0e10007d8e10002003100c0
:1008e000680040001008e8004f05be004f04be003d
:1008f000000006001000fa00889fbe008a9fbe001c
:10090000110020000605be000404be003002be0037
:100910002003be00c4b79f00d5b79f00e6b79f0075
:10092000f7b79f000802520089825a000a035b0051
:100930008b835b0084bf9f0095bf9f00a6bf9f0075
:10094000b7bf9f000498be000698be004fb2970044
:10095000dfb297006fb39700ffb397000820e10064
:1009600009a8e1000ab0e1000bb8e100010039007c
:100970008000eb004f05be00108810004f04be0041
:100980000080fa00000006001400fa00889fbe00f4
:100990008a9fbe008c9fbe000006eb003e00070051
:1009a000ccb79f00bcb79f00acb79f009cb79f001f
:1009b0008cb79f000605be000404be000d04200095
:1009c0004fb39700bfb29700860343002fb2970042
:1009d000e00f530004003d003d0007000f00400001
:1009e000b0ff070003003700390007000f00400088
:1009f000c0ff0700cfb2970095bf9f00e08f520065
:100a0000090035002b00070014002000050020001d
:100a10006033b80000007200818072000201730030
:100a2000838173001c0007000c06e8008d0f560040
:100a3000e3ff3a001fba9700e00f520005003d00a7
:100a40000802be000a03be0000fe2f000f00400097
:100a500094ff07004faa9700e00f520008003a00e9
:100a60000fb497009fb497002fb59700bfb59700bc
:100a7000d8b79f00e9b79f00fab79f008bbf9f00d0
:100a80000c0007004f06be004f05be004f04be001d
:100a90000080fa00000006000100070000000600c8
:100aa00090b79f00a1b79f00b2b79f00c3b79f0048
:100ab0000000060001000700000006001fb09700bc
:100ac000afb097003fb19700cfb19700000006008c
:100ad0004f2bde00f9ff07008683730085824200fa
:100ae0004f23de00a7b79f008682720004024200f7
:100af00095b79f00ffaa97004f2bde00858242002a
:100b00000602720084b79f006faa97004f23de0091
:100b10000402420086827200f5af9f004f18de008b
:100b200000027200e5ff0700e4af9f0000004000f4
:100b30008180480002014900838149000802be000b
:100b40000a03be00d6ff070000fe2f0000000600cb
:100b5000881f780018002000881f78008aff07008f
:100b60008f87e9004f04780000000600801feb002b
:100b700085ff07008f87e90000000600889fbe0000
:100b80008a9fbe00e00f5000e08f5800e00f590030
:100b9000e08f59000c003d006044b8006055b8007b
:100ba0000000540081805c0002015d0083815d00d3
:100bb000180020001500070008003d00180007007d
:100bc0000004eb00050037000004eb000f000700f5
:100bd00002003d001200070018002000dcff0700a3
:100be000e00f5400060032006022b8006033b80005
:100bf0000000520081805a0002015b0083815b008b
:100c00004f05be004f04be0000000600e00f52007a
:100c1000e08f5a00e00f5b00e08f5b0000000600f1
:100c20006044b8006055b8000402540085825c003e
:100c300006035d0087835d0000000600889fbe00fc
:100c40008a9fbe008c1f7800e00f5000e08f580094
:100c5000e00f5900e08f59000d003d006044b800de
:100c60006055b8001c0020000000540081805c002a
:100c700002015d0083815d000820e10009a8e10018
:100c80000ab0e1000bb8e1000d003d00080037009c
:100c90000006eb00e00f5200e08f5a00e00f5b000f
:100ca000e08f5b0006003d006044b8006055b8006e
:100cb0000402540085825c0006035d0087835d00aa
:100cc000aaff0700e00f5600060032006022b800bd
:100cd0006033b8000000520081805a0002015b00be
:100ce00083815b004f0678004f05be004f04be00b5
:100cf00000000600889fbe008a9fbe008c1f7800ff
:100d00000006eb00e00f5000e08f5800e00f5900a4
:100d1000e08f590007003d006044b8006055b800fe
:100d20001c0020000000540081805c0002015d0076
:100d300083815d00e00f5200e08f5a00e00f5b00fe
:100d4000e08f5b0007003d006044b8006055b800cc
:100d50000c00a2000402540085825c0006035d00c2
:100d600087835d000c000700e00f5600060032008c
:100d70006022b8006033b8000000520081805a0041
:100d800002015b0083815b004f0678004f05be00c7
:100d90004f04be0000000600889fbe008a9fbe0070
:100da0008c9fbe000404b8000506b8008904460004
:100db00060854e000606b8000a054600e0854e0034
:100dc0000706b8008b054600040eb80089044600eb
:100dd0000a854e00e0854d00050eb8000a05460064
:100de0008b854e00060eb8008b0546000416b80031
:100df0000a0546008b854e000516b8008b05460097
:100e0000041eb8008b0546000800be000a01be00a3
:100e10004f06be004f05be004f04be000000060096
:100e20000002780002003700315a78000201e90020
:100e3000e00f5100fcff3a0000000600889fbe0052
:100e40000004be00050037000000fb0089007800a8
:100e500019000700e10f400004003200384078001c
:100e6000e04f5000f8ff3a000000eb004f04be00d6
:100e70000000060081902000881f7800efff070027
:100e80008190200000047800a00020000a000700e4
:100e9000080078004f0478000000060080902000d1
:100ea0000000fa0068815700cfb89700460007009d
:100eb0000080fa0000000600889fbe000104780050
:100ec0008084eb0038029000e20262003b003200b6
:100ed00004037800980290000620b20002003a0055
:100ee000e08f520035003a000490a00080047800a2
:100ef00034049800f90fb200e08f520002003a006b
:100f0000a8029000050c7800ea8f540005003a0012
:100f10000408b20003003a0088007800d0002000e6
:100f2000e5ff070018029000d8029000850f5200dc
:100f30000b0032000402e80015c0b300140498004e
:100f400018027800094a7800040ce8002492200076
:100f5000054a7800ea8f540018003a00050037006f
:100f60000940780088007800920307008004780028
:100f700012003700380290000410b2000f00320057
:100f800018019000a800900048009000bbfd0700e9
:100f900018029000840f50000400320038029000c4
:100fa0000403b300340498008084eb000002eb00db
:100fb0001404980028029000040c780009007800be
:100fc0004f04be0000000600ef03b000889fbe0083
:100fd0008a9fbe008c9fbe00800678008e1f78001e
:100fe0000007eb00d1af9f00a2b79f006503370059
:100ff000dfa8970054c2b3008100e800d1af9f0082
:10100000844f500006003a00010278000006eb0011
:1010100001c3b30000c2b300b7c2b3000e00370073
:101020003d0290000404b200040032001d0278006a
:10103000004a7800840ee800050037000000fb003d
:101040008d0078009cff0700e10f40004d03320047
:101050000e07e8004b03370084027800d2c2b300c9
:1010600034437800824f53000900320005003c00f1
:10107000804f530008003200874f53000c003a00a5
:1010800007003700814f530009003a00060037007f
:101090000c30a000f0ff37000c00a000eeff37007e
:1010a0000c10a000ecff37000c20a000eaff370076
:1010b00062026600010032000c00a10068026600b6
:1010c000010032000c20a1000602fb000403b10065
:1010d000e90f52000c003e00050378000002eb000f
:1010e000b603fb006a22b9000703b100860278004c
:1010f000048243009603fb000703b100e98f53000d
:10110000f7ff3600080037000002eb00a7c2b3006b
:10111000874f530004003a00afb197008502e80002
:1011200043027800a3b79f000003eb0096b79f002f
:10113000e6c2b300954f13000c003a000ce0a0008b
:1011400064435300d54f13000300320005037800b9
:101150000000eb0009003700afb397008502e800fc
:1011600047047800a7b79f0098b79f000503780051
:10117000090037006a00b900008043008602780049
:10118000b603fb000703b100e98f5300f9ff3600f7
:1011900090b79f00f5ff3700b6427800cac6b3008b
:1011a000d6af9f008acf5200250032000f003c00ce
:1011b00036c6b30086cf52009d00320004003c00ca
:1011c000e0cf5200f40232006b4353000f003700af
:1011d00046c6b30086cf5200170032006543430075
:1011e00086cf5200b1003a001300370036c7b30073
:1011f00086cf52002000320007003c0064435300b9
:1012000086cf5200150032000643e80086cf520018
:10121000a6003a001400370056c7b30086cf52002c
:10122000a90032006343430086cf52009f003a007a
:10123000e5779f000e003700e5779f00a400370098
:10124000f0036600050120000100320005002800bf
:101250008c82720005067800cfff3700e5779f008b
:101260000c60a0009a003700e5779f000c50a000aa
:101270000c70a00096003700afb59700e5779f008f
:10128000cb027800abb79f00b5b79f00e08f52004c
:1012900002003a0041852000b1b79f003fb397009c
:1012a0008002eb00010037008502e800e6c37a0007
:1012b000e0cf5300fcff3a00c5b79f001fb1970075
:1012c000e00f510005003200cfb19700830f5100ad
:1012d0000200310082027800c5b79f00cfb29700ac
:1012e0000004eb00850f5200010036000504520097
:1012f0006806660009c2b3000f00320029003700fb
:101300003d0290000404b200040032001d02780087
:10131000094a7800840ee800050037008d00780047
:1013200000022000e4fe0700e10f4000010032004f
:101330000e07e8000804e900e00f5400f0ff3a004f
:101340000084eb0017003700bd0290000504b200d6
:1013500009003200880278009d0378003543780048
:10136000864b780005047800870ee800e04f5300b4
:101370000a003a0010003700880278008d007800db
:101380003500fb0084bf9f0005047800cafe0700fb
:101390000fba9700e10f4000070032000e07e80087
:1013a00005003700080278003fb49700cfb49700db
:1013b0005fb59700efb59700890278008504e900d2
:1013c000e08f5200e0ff3a00b8b79f00c9b79f0016
:1013d000dab79f00ebb79f000404780009c2b3009e
:1013e000e00f56000f003a00660237003d02900001
:1013f0000404b200040032001d027800094a78009b
:10140000840ee800050037008d00780000022000ff
:10141000a9fe0700e10f4000010032000e07e800be
:101420000804e900e00f5400f0ff3a0055023700cd
:10143000afb097007003660041047800a1b79f0029
:10144000cfc4de00090578008a0578000800be00d8
:101450000a01be004800de00c80add0000807200fc
:10146000e0779f00e00f530009003200e04f50008a
:1014700007003200e14f4000050032002600200046
:10148000f0779f00887f9f00c6b79f00030037005a
:1014900017002000c7b79f00f8779f0078fb2f0048
:1014a00008844700b8b79f0084ff370069fb2f000e
:1014b0001a00200089844700e5779f00b9b79f0094
:1014c000cab79f007dff3700e5779f000c0cb30083
:1014d0008c027800050cb2003b003a00e00f560089
:1014e00005003d00afb297004501be004500be00bb
:1014f000a5b79f000f003700f0026600120032000f
:101500002fb497004803be00f69f9f0087a79f0057
:10151000a8b79f0098029000cfaade0095a79f0071
:10152000a5a79f007f9897008fa097001fa1970005
:10153000afa19700b0b79f00c1b79f00d2b79f007f
:10154000e3b79f000b003700afb09700c1027800ef
:1015500005047800cfc4de00090578008a0578000c
:10156000a1b79f00b8b79f00c9b79f00dab79f0027
:10157000ebb79f003fb09700cfb097005fb19700e7
:10158000efb19700e00f5000e08f5800e00f5900d6
:10159000e08f590032003d006000b8006011b800d3
:1015a0003fb49700cfb497005fb59700efb59700b1
:1015b0003c00b30008045000898458000a05590013
:1015c0008b85590022003700e00f560005003d00d2
:1015d000afb297004501be004500be00a5b79f0011
:1015e0000f003700f0026600120032002fb497009f
:1015f0008004eb004803be000005eb0096af9f009f
:10160000a7af9f00b9af9f00caaf9f001fa8970068
:10161000afa897003fa99700cfa99700a8b79f0050
:10162000b0b79f00c1b79f00d2b79f00e3b79f003c
:101630000b003700afb09700c1027800a1b79f0040
:1016400005047800090020000a0020000b0020009b
:10165000b8b79f00c9b79f00dab79f00ebb79f00ec
:101660009fb49700e08f54000d003a001a0020004c
:101670003fb09700cfb097005fb19700efb19700f0
:101680009ab79f00e00f5000e08f5800e00f59001c
:10169000e08f5900020032008000eb0091b79f00fc
:1016a0000c01780005042000020cb20082b79f00f4
:1016b000850f51003400320003003c00e00f510060
:1016c0000800320048003700050820008fb197005d
:1016d000858f510014003200050c2000858f5100c9
:1016e00041003a004686200015c0b3003600be0017
:1016f0003601be003fb49700cfb497005fb59700a6
:10170000efb597000040e10001c8e10002d0e10020
:1017100003d8e100330039008542e800f4cf5200dd
:10172000f2ff3a002f00370015c0b300000120007f
:10173000010020006011b8003fb49700cfb49700bb
:101740005fb59700efb597000040e10001c8e100e8
:1017500002d0e10003d8e100220039004900200056
:101760000000d0008180d2000281d2008381d200ab
:101770008904e900faff3a008542e800f0cf520000
:10178000edff3a001700370015c0b30080002000bd
:10179000010020006011b8003fb49700cfb497005b
:1017a0005fb59700efb597000040e10001c8e10088
:1017b00002d0e10003d8e1000a003900390020001e
:1017c0000000d0008180d2000281d2008381d2004b
:1017d0008904e900faff3a008542e800f5cf52009b
:1017e000edff3a00e5779f006f7597009fb5970072
:1017f0008a02fb008b8f520002003d00eb779f00b6
:10180000040037001fb09700850f500001003d0015
:1018100095b79f00e00f520003003200e30266001c
:10182000010032000402e900050024008502660080
:10183000060032009fb09700810f52000200340072
:1018400001025200010037000002eb006f719700a7
:101850008001eb008202fb00f3af9f00850f520076
:101860000200340085025200f5af9f00640266005a
:101870003b003200e202660061026600e08f520027
:1018800011003200bd0290000504b20008003200d1
:101890009d027800b6c2b300e00f52000100320092
:1018a00006c3e800864a7800850ee8001500370078
:1018b000b0022000e00f5200010032000080e8007a
:1018c0008d0078000c003700e00f52000e0032004f
:1018d0003d0290000404b200050032001d027800b1
:1018e00005c2b300054a7800840ee8000500370001
:1018f0008d007800000220006ffd0700e10f40001e
:10190000010032000e07e8007faa9700e00f5200a6
:101910004f00320008c3b300840478003d029000f9
:101920000404b200040032001d027800084a780066
:10193000840ee800050037008d00780000032000c9
:101940005dfd0700e10f4000010032000e07e800d6
:101950008904e900f1ff3a00f9af9f003c0037002d
:10196000ffaa9700e08f5200140032006802660060
:1019700012003a0008c2b300850478003d029000ce
:101980000404b200040032001d027800084a780006
:10199000840ee800050037008d007800000220006a
:1019a00045fd0700e10f4000010032000e07e8008e
:1019b0008904e900f1ff3a00f9af9f00e2026600f6
:1019c00061026600e08f520011003200bd029000fb
:1019d0000504b200080032009d027800b6c2b300d0
:1019e000e00f52000100320006c3e800864a78008a
:1019f000850ee80015003700b0022000e00f52000d
:101a0000010032000080e8008d0078000c003700f3
:101a1000e00f52000e0032003d0290000404b200bc
:101a2000050032001d02780005c2b300054a7800a7
:101a3000840ee800050037008d00780000022000c9
:101a40001dfd0700e10f4000010032000e07e80015
:101a50001fb39700c58520000602e900f004660068
:101a6000c223dd000c057800c7a79f000a02b20060
:101a70006323b900e99f9f00060478004322dd003c
:101a8000b8a79f0085024200da9f9f00e5af9f0044
:101a9000a30037009fb597000fb097008b05e900b2
:101aa000010420009bb79f00810f5000730032009b
:101ab00003003c00e00f5000080032007e003700b9
:101ac000040820000fb19700840f51005600320027
:101ad000040c2000840f510077003a00e00f5600fc
:101ae0001f003d00efa997003304be002305be0090
:101af0003fb09700cfb097005fb19700efb197006c
:101b00000802be000a03be0011fc07000802be0066
:101b10000a03be00e0779f000000fb00cf80de00dc
:101b2000010178008201780072fc07003fb2970043
:101b3000cfb297005fb39700efb397000002520057
:101b400081825a0002035b0083835b00b4b79f006d
:101b5000c5b79f00d6b79f00e7b79f002e0037009c
:101b6000ef9a9700e08f5200220032006fab97008f
:101b70003fb29700cfb297003604be002605be00e4
:101b80000400be000801be0084bf9f00f5b79f009f
:101b90000005eb00c90007000801be00e0779f00c8
:101ba0000000fb00cf80de00d40007000fba9700d2
:101bb000ffb297008aaf9f000004520081845a0050
:101bc000d8a79f00e9a79f008004eb00f9a79f001a
:101bd0005fa09700efa097007fa197008fa99700c3
:101be000b0b79f00c1b79f00d2b79f00e3b79f0077
:101bf00009003700efa897003fb197001102780065
:101c0000110009000481d800a4002000110009007f
:101c10000480d800e1779f00ef7197000343b00084
:101c2000e3779f002400370034842000df9a970078
:101c3000e08f520001003200248320003fb0970063
:101c4000cfb097005fb19700efb197004fa3970017
:101c50000603e900050033008301d1000281d300af
:101c60008180d3000080d300f9ff37006f0060004f
:101c700064407800e0779f000f0037003fb2970084
:101c8000cfb297005fb39700efb397003fa49700e0
:101c90000804e900050033008703d1000683d30060
:101ca0008582d3000482d300f9ff370067426200c7
:101cb0000443b000e4779f003d0290000404b200aa
:101cc000070032009d0278006f729700844a780006
:101cd000850ee800e04f520007003a000700370089
:101ce000ef7497008d0078000900fb0072fc07007c
:101cf000e10f4000010032000e07e8004fa59700f9
:101d0000bfa597006fa8970064055500e3855500af
:101d100068005000caa79f00bba79f00e0af9f00cc
:101d20009fb09700e08f50005aff3a0068066600a7
:101d3000140032007fa99700e00f51001100340019
:101d400008c2b300820478003d0290000404b2008f
:101d5000040032001d027800084a7800840ee80072
:101d6000050037008d0078000002200052fc0700bb
:101d7000e10f4000010032000e07e8008904e9008d
:101d8000f1ff3a00dfa9970013407800e0779f0049
:101d9000e04f500096fc3a000e0078004f077800a4
:101da0004f06be004f05be004f04be00ef03b1005a
:101db000000006000200fa00889fbe0001047800bf
:101dc000a0ff9f0038029000840278000504b20052
:101dd000020032000000fb0035003700e202620022
:101de00005003a000403b300150498003404980079
:101df0000080eb002e003700d8049000e08f5400e4
:101e000006003a0012002000e680570048009000cb
:101e10001afa07001904980023003700a80290005e
:101e2000e08f520008003a00559220000430a000d4
:101e300025049800050c7800340498002500200043
:101e4000550498001504980018019000a80090000f
:101e50004800900009fa0700280290008082eb00f9
:101e600015049800affa9700054a7800040ce800c2
:101e70002ffa9700ea4f52000b003a003802900008
:101e80000410b2000800320018019000a800900071
:101e900048009000f9f907000002eb00a80290004a
:101ea00014049800050c78002ffa97000400fb003a
:101eb0004f04be000080fa00000006006022b80057
:101ec000060220000000d0008180d2000482d200ef
:101ed0008582d2000000a0000202520083825a00d4
:101ee000030031000202420083824a000000a10088
:101ef0000603e900f3ff3a0000000600020ab900f9
:101f0000001bb9000200b8008100420081004300bc
:041f100000000600c7
:020000040000fa
:101f140042610000636b00005f7400006f5f0000ab
:101f24007374000061720000740000006e3d0000d4
:101f3400256400000a6900003d250000640a0000d1
:101f4400004900006e740000485b00002564000036
:101f54005d0a0000004900006e740000565b00003a
:101f6400256400005d0a000000480000525700008c
:101f74005b250000645d00000a000000726500003b
:101f8400737500006c740000204800005257000074
:101f9400203d000020250000640a000000480000e5
:101fa400465700005b250000645d00000a00000045
:101fb40072650000737500006c7400002048000016
:101fc40046570000203d000020250000640a000060
:101fd40000560000525700005b250000645d0000bd
:101fe4000a00000072650000737500006c74000044
:101ff4002056000052570000203d0000202500001c
:10200400640a000000560000465700005b250000eb
:10201400645d00000a000000726500007375000032
:102024006c7400002056000046570000203d00005c
:1020340020250000640a0000004c00004f5f0000ef
:102044007374000061720000740000005374000097
:102054006172000074000000537400006f7000008f
:042064000000000078
:020000040000fa
:102068000000fa00cc02a900cc22a900cc42a900a9
:10207800cc62a9000080fa00000006000000fa0007
:10208800cc82a900cca2a900ccc2a900cce2a900ac
:102098000080fa0000000600c600fa0020a7980099
:1020a8000440220005002000048fbe00450c2000db
:1020b8008e824200640247002200200085007800da
:1020c8000400780054fb070064024700030c20005a
:1020d800040178001e00be00f00107000080fa002d
:1020e80000000600c600fa0020a79800048022001d
:1020f80005002000048fbe00450c20008e8242009f
:10210800640247002200200085007800040078005f
:1021180041fb070064024700030c2000040178001b
:102128001e00be00dd0107000080fa000000060066
:102138000600fa0004402200050020001407980059
:10214800250798000e02780023002000040178007b
:102158001e009000ae009000260207001e027800c4
:10216800040078000080fa00000006000600fa006b
:102178000480220005002000140798002507980015
:102188000e02780023002000040178001e00900051
:10219800ae009000170207001e02780004007800c5
:1021a8000080fa00000006000200fa000002eb00be
:1021b800040f78000f003700cc02a800cc22a90039
:1021c800cc42a900cc62a900001027002100200001
:1021d800bd020700cc02a900cc22a800cc42a9006d
:1021e800cc62a9000010270021002000b6020700d9
:1021f8001e0fe800840220009e027800848f52009f
:10220800edff340096ff07000080fa00000006008a
:102218000200fa000002eb00040f78000f003700fc
:10222800cc82a900cca2a800ccc2a900cce2a9000b
:102238000010270021002000a3020700cc82a8007c
:10224800cca2a900ccc2a900cce2a90000102700aa
:10225800210020009c0207001e0fe8001e027800e3
:10226800f40f5200eeff340084ff07000080fa00ec
:10227800000006000200fa000002eb00040f7800dc
:102288000f003700cc02a900cc22a900cc42a8003c
:10229800cc62a90000102700210020008a02070054
:1022a800cc02a900cc22a900cc42a900cc62a8008b
:1022b8000010270021002000830207001e0fe800fd
:1022c800840220009e027800848f5200edff3400c3
:1022d80063ff07000080fa00000006000200fa0011
:1022e8000002eb00040f78000f003700cc82a90031
:1022f800cca2a900ccc2a900cce2a80000102700fb
:102308002100200070020700cc82a900cca2a900fd
:10231800ccc2a800cce2a9000010270021002000b0
:10232800690207001e0fe8001e027800f40f520031
:10233800eeff340051ff07000080fa00000006009d
:102348000400fa00a0f82800c8fa070078ff070080
:1023580000027800040f780084ff0700000278006c
:10236800140798001e029000841f78009e1f7800b2
:1023780084f92800841f7800c6fa0700e68757000a
:1023880007003700bbff07009e1f780034fa2800bb
:10239800841f7800bffa0700e48757001e0fe90082
:1023a8001e027800e00f5200f6ff3c000a003700da
:1023b800b0ff07001e029000841f7800d4fa28009e
:1023c800841f7800b3fa0700e48757001e029000c4
:1023d8000402e900140798001e029000e00f520062
:1023e800f3ff3c000080fa00000006000a00fa0033
:1023f80010079800210798003207980043079800b3
:102408002e029000e00f520016003d000002eb0083
:10241800040f78000e00370096ff07009e1f780013
:1024280074fb2800841f78009afa0700e487570095
:102438003fff070000027800841f780004fc280092
:10244800841f780093fa0700e48757001e0fe800fe
:102458001e0290009e027800848f5200eeff350025
:10246800150037000002eb00040f78000e0037005b
:102478004dff07009e1f780014fd2800841f780078
:1024880084fa0700e487570029ff07000002780054
:10249800841f7800a4fd2800841f78007dfa0700b7
:1024a800e48757001e0fe8001e0290009e02780085
:1024b800848f5200eeff35004e029000e00f52006c
:1024c80016003d000002eb00040f78000e003700f4
:1024d80082ff07009e1f7800b4fe2800841f780042
:1024e8006cfa0700e487570020ff07000002780015
:1024f800841f780044ff2800841f780065fa0700cd
:10250800e48757001e0fe8003e0290009e02780004
:10251800848f5200eeff3500150037000002eb00f3
:10252800040f78000e00370039ff07009e1f78005f
:1025380054002900841f780056fa0700e4875700e2
:10254800fbfe070000027800841f7800e4002900e1
:10255800841f78004ffa0700e48757001e0fe80031
:102568003e0290009e027800848f5200eeff3500f4
:102578000080fa00000006001600fa00000f98001c
:10258800110f9800220f9800f001290037fa070070
:102598000e0a900044079800e5fe07000002780044
:1025a800540798001e0a900064079800effe070081
:1025b8000002780074079800ce0290005e02900036
:1025c80004825200e00f520006003d00de02900037
:1025d8004e029000048f52000082eb00140798000e
:1025e80005003700ce0290005e029000048f520072
:1025f8001400200014079800ee0290007e0290005c
:1026080004825200e00f520007003d00fe029000d5
:102618006e02900004825200240798000082eb00aa
:102628003407980006003700ee0290007e02900002
:1026380004825200240798001400200034079800f0
:10264800be0190002e0190009e0090001e007800b0
:1026580066ff07004e0090008ffe07006e00900096
:10266800a0fe07002e0a900004007800cf80de004c
:10267800010178008201780004402200450f200003
:102688006033b80099f907000203be000002be00db
:102698000400be000601be00843e200005002000a4
:1026a8006033b80028f907000203be000002be002c
:1026b8000402be000400be00830107000080fa0087
:1026c800000006000000fa001dff07000000eb00f4
:1026d80071fe07000000eb0082fe0700800229005f
:1026e800e2f907007540800084408000027d2000e8
:1026f80085007800040078009fff0700e0022900a9
:10270800daf907000080fa00000006000800fa0065
:10271800000f7800110798002207980033079800e7
:102728001e027800044278000400780032e0b70006
:102738001e029000be029000050abb001e02900017
:10274800ae029000058abb000080fa000000060077
:102758000800fa0020079800310798002e02900020
:10276800044278000400780032e0b7003e0290008e
:102778001402ba00040f78003e0290001482ba00d6
:10278800140798001e02be000400be000080fa0074
:10279800000006000800fa0020079800310798009a
:1027a80014028000040f78002403200014427800eb
:1027b8000482fb001407980015028000040e200014
:1027c800050272001402880024042400043b8800d7
:1027d8002e029000044278000002fd0032e0b700ab
:1027e8000002fd003e029000040abb0054052000d0
:1027f800343b8800a40a2000343b880061e7a80025
:1028080000000000000000001e027800140288008a
:10281800050037001e029000044278000002fd0007
:1028280032e0b7000002fd00043b8000e00f5200d8
:10283800f8ff35000080fa00000006000200fa00e8
:1028480014028000040f780015028000040e200096
:10285800050272001402880014002400043b88005a
:1028680054052000343b8800a40a2000343b88002b
:1028780061e7a80000000000000000001e027800c8
:102888001402880000000000043b8000e00f5200a2
:10289800fdff35000080fa00000006001200fa0073
:1028a800500798006107980072079800030f980076
:1028b800de0290006e029000850078000400780027
:1028c800b4ff07008e0a90003400200011000900b0
:1028d8008482d80000027800240798008e0a9000ad
:1028e80034002000110009008482d8000102780019
:1028f800e00f5200030032002e0290000402e800ac
:1029080024079800ae029000f403200004826200bd
:10291800ae02900004824200240798000002eb00f7
:10292800140798000002eb00040f78002b00370012
:102938007e0290001e02420014427800644798000c
:102948001e02e800fe029000048242001442780051
:10295800744798001e82e800fe029000048242003c
:1029680014427800044f98000042eb00144f98007e
:10297800be0390004e039000de0290006e029000ad
:102988008701780006017800850078000400780047
:102998005eff07001e0290008402e800f403200096
:1029a80004826200e00f520001003a00a3ff070012
:1029b8005e029000ee02900062024200e0824a004d
:1029c80054079800650798001e0290000402e8006a
:1029d800140798001e027800630f42009e029000c0
:1029e8002e029000848f5200d1ff39000080fa0037
:1029f800000006000e00fa00300798004107980012
:102a080052079800630798000002eb00040f780053
:102a180021003700be0290004e0290008500780029
:102a2800040078004aff07000002be006033b800c7
:102a3800160798002707980014079800250798009c
:102a48005e0290009e0242002e429000844a780066
:102a58001e02e800de029000848242003e4290009e
:102a6800844a78001e82e800de02900084824200d8
:102a78004e429000844a78003e029000ce029000b8
:102a880062024200e0824a00340798004507980035
:102a98001e027800630f42006e0290009e027800ca
:102aa800848f5200dbff39000080fa000000060026
:020000040000fa
:102ab80030080000020000000000000000080000cc
:102ac80018000000020000000100010000020000e0
:102ad80002000300000300000400040000050000d9
:102ae8000500060000060000180800000e0000009f
:102af80000000000260800000a0000000200000094
:102b08004d696300726f630068697000000000001f
:102b1800fc08000026000000020000002309000055
:102b28000023090009000000000200002509000038
:102b3800002509000e02010000000000000000004e
:102b4800000000000602020000000000fc0800006f
:102b58002209000006000000000000003208000002
:102b6800ca00000002000000303132003334350062
:102b780036373800394142004344450046003000aa
:102b8800313233003435360037383900616263003a
:102b98006465660000286e00756c6c0029000000f2
:102ba800010000000000000000000a000000000012
:102bb80000000000006400000000000000000000a9
:102bc800e8030000000000000000100027000000db
:102bd8000000000000a086000100000000000000c6
:102be80040420f000000000000008000969800009e
:102bf800000000000000e100f505000000000000f2
:102c080000ca9a003b00000000000000e40b5400da
:102c1800020000000000e8007648170000000000ed
:102c28000010a500d4e8000000000000a0724e00cb
:102c380018090000000040007a10f3005a00000054
:102c48000080c600a47e8d000300000000c16f0054
:102c5800f2862300000000008a5d780045630100c9
:102c680000006400a7b3b600e00d000000e889008a
:0c2c78000423c7008a00000000000000d8
:020000040000fa
:102c84000000fa00c802a900c822a900c842a9008d
:102c9400c862a900c882a900c8a2a900c8c2a90024
:102ca400c8e2a9000080fa00000006000000fa0053
:102cb400f3ff070057f6070000802400811e200060
:0c2cc4000200070080fe0700ffff370041
:020000040000fa
:102cd000f03fb1000180b10006003500ee030900ad
:102ce00000000000403fb1000180b100fbff3d004b
:102cf0001000b000203fb000020035000080090045
:082d00000000000000000600c5
:020000040000fa
:020000040002f8
:04aff400002e00002b
:020000040000fa
:020000040002f8
:04aff800b61300008c
:020000040000fa
:020000040002f8
:04affc007f3e000094
:00000001FF
